:100000000C9434000C9451000C9451000C94510049
:100010000C9451000C9451000C9451000C9451001C
:100020000C9451000C9451000C9451000C9451000C
:100030000C9451000C9451000C945A080C945100EB
:100040000C9451000C9451000C9451000C945100EC
:100050000C9451000C9451000C9451000C945100DC
:100060000C9451000C94510011241FBECFEFD8E026
:10007000DEBFCDBF11E0A0E0B1E0EAE7F1E102C0F0
:1000800005900D92A430B107D9F721E0A4E0B1E0CA
:1000900001C01D92A830B207E1F70E94C5040C947C
:1000A000BB080C940000CF93DF9300D0CDB7DEB730
:1000B00089836A8389810E9499008A810E94030151
:1000C00081E00E9487028AE790E0FC018081882F0E
:1000D00090E065E00E94AA039C018AE790E0FC01A1
:1000E000208300000F900F90DF91CF910895CF9360
:1000F000DF931F92CDB7DEB7898389810E94B20258
:100100000E946A038CE790E0FC018081882F90E0D8
:1001100065E00E94AA039C018CE790E0FC0120832B
:1001200088E790E0FC01808191810F90DF91CF9171
:100130000895CF93DF931F92CDB7DEB7898389816E
:10014000882F90E0009719F00197F1F03AC08CE702
:1001500090E0FC018081882F90E067E00E94AA0374
:100160009C018CE790E0FC0120838CE790E0FC018F
:100170008081882F90E066E00E94AA039C018CE7B2
:1001800090E0FC0120833AC08CE790E0FC01808184
:10019000882F90E067E00E94AA039C018CE790E022
:1001A000FC0120838CE790E0FC018081882F90E0A7
:1001B00066E00E948C039C018CE790E0FC012083A8
:1001C0001DC08CE790E0FC018081882F90E067E003
:1001D0000E948C039C018CE790E0FC0120838CE75B
:1001E00090E0FC018081882F90E066E00E948C0303
:1001F0009C018CE790E0FC012083000000000F9040
:10020000DF91CF910895CF93DF931F92CDB7DEB7E3
:1002100089838981882F90E08031910509F49BC002
:10022000813191055CF48430910509F43EC0883039
:10023000910509F465C0029769F039C180349105D0
:1002400009F4DFC08038910509F406C1809709F4EC
:10025000ADC02DC18AE790E0FC018081882F90E03D
:1002600062E00E94AA039C018AE790E0FC012083DF
:100270008AE790E0FC018081882F90E061E00E9495
:10028000AA039C018AE790E0FC0120838AE790E0C2
:10029000FC018081882F90E060E00E948C039C012B
:1002A0008AE790E0FC0120832DC18AE790E0FC0101
:1002B0008081882F90E062E00E94AA039C018AE777
:1002C00090E0FC0120838AE790E0FC018081882F88
:1002D00090E061E00E948C039C018AE790E0FC01C1
:1002E00020838AE790E0FC018081882F90E060E025
:1002F0000E94AA039C018AE790E0FC01208302C1CE
:100300008AE790E0FC018081882F90E062E00E9403
:10031000AA039C018AE790E0FC0120838AE790E031
:10032000FC018081882F90E061E00E948C039C0199
:100330008AE790E0FC0120838AE790E0FC0180815D
:10034000882F90E060E00E948C039C018AE790E097
:10035000FC012083D7C08AE790E0FC018081882FD0
:1003600090E062E00E948C039C018AE790E0FC012F
:1003700020838AE790E0FC018081882F90E061E093
:100380000E94AA039C018AE790E0FC0120838AE78F
:1003900090E0FC018081882F90E060E00E94AA0339
:1003A0009C018AE790E0FC012083ACC08AE790E0E2
:1003B000FC018081882F90E062E00E948C039C0108
:1003C0008AE790E0FC0120838AE790E0FC018081CD
:1003D000882F90E061E00E94AA039C018AE790E0E8
:1003E000FC0120838AE790E0FC018081882F90E067
:1003F00060E00E948C039C018AE790E0FC0120836E
:1004000081C08AE790E0FC018081882F90E062E063
:100410000E948C039C018AE790E0FC0120838AE71C
:1004200090E0FC018081882F90E061E00E948C03C5
:100430009C018AE790E0FC0120838AE790E0FC01C0
:100440008081882F90E060E00E94AA039C018AE7E7
:1004500090E0FC01208356C08AE790E0FC01808197
:10046000882F90E062E00E948C039C018AE790E074
:10047000FC0120838AE790E0FC018081882F90E0D6
:1004800061E00E948C039C018AE790E0FC012083DC
:100490008AE790E0FC018081882F90E060E00E9474
:1004A0008C039C018AE790E0FC0120832BC08AE743
:1004B00090E0FC018081882F90E062E00E94AA0316
:1004C0009C018AE790E0FC0120838AE790E0FC0130
:1004D0008081882F90E061E00E94AA039C018AE756
:1004E00090E0FC0120838AE790E0FC018081882F66
:1004F00090E060E00E94AA039C018AE790E0FC0182
:100500002083000000000F90DF91CF910895CF93DA
:10051000DF931F92CDB7DEB789838981882379F075
:100520008AE790E0FC018081882F90E067E00E94DC
:100530008C039C018AE790E0FC0120830EC08AE7CF
:1005400090E0FC018081882F90E067E00E94AA0380
:100550009C018AE790E0FC01208300000F90DF916E
:10056000CF910895CF93DF931F92CDB7DEB78983E4
:100570008981882F90E0092E000CAA0BBB0B0197F4
:10058000A109B10988309105A105B10508F08DC018
:1005900083539D4FFC010C94B508D502E502F5028A
:1005A000050315032503350345038CE790E0FC01A3
:1005B0008081882F90E061E070E00E940D049C0132
:1005C0008CE790E0FC01208380C08CE790E0FC0188
:1005D0008081882F90E062E070E00E940D049C0111
:1005E0008CE790E0FC01208370C08CE790E0FC0178
:1005F0008081882F90E063E070E00E940D049C01F0
:100600008CE790E0FC01208360C08CE790E0FC0167
:100610008081882F90E064E070E00E940D049C01CE
:100620008CE790E0FC01208350C08CE790E0FC0157
:100630008081882F90E065E070E00E940D049C01AD
:100640008CE790E0FC01208340C08CE790E0FC0147
:100650008081882F90E066E070E00E940D049C018C
:100660008CE790E0FC01208330C08CE790E0FC0137
:100670008081882F90E067E070E00E940D049C016B
:100680008CE790E0FC01208320C08CE790E0FC0127
:100690008081882F90E068E070E00E940D049C014A
:1006A0008CE790E0FC01208310C08CE790E0FC0117
:1006B0008081882F90E060E070E00E940D049C0132
:1006C0008CE790E0FC012083000000000F90DF9198
:1006D000CF910895CF93DF93CDB7DEB78AE790E04F
:1006E000FC018081882F90E066E00E948C039C01D1
:1006F0008AE790E0FC01208300008AE790E0FC019B
:100700008081882F90E066E00E94E803892BA9F79A
:100710000000DF91CF910895CF93DF9300D01F9217
:10072000CDB7DEB79A8389836B838B81282F30E026
:1007300081E090E002C0880F991F2A95E2F79C01A2
:1007400089819A81822B932B0F900F900F90DF91CC
:10075000CF910895CF93DF9300D01F92CDB7DEB72E
:100760009A8389836B838B81282F30E081E090E02E
:1007700002C0880F991F2A95E2F7809590959C01F9
:1007800089819A81822393230F900F900F90DF919C
:10079000CF910895CF93DF9300D01F92CDB7DEB7EE
:1007A0009A8389836B838B81282F30E081E090E0EE
:1007B00002C0880F991F2A95E2F79C0189819A81CE
:1007C000822793270F900F900F90DF91CF9108957C
:1007D000CF93DF9300D01F92CDB7DEB79A83898382
:1007E0006B838B81282F30E081E090E002C0880F7E
:1007F000991F2A95E2F79C0189819A81822393238C
:10080000892B19F480E090E002C081E090E00F9025
:100810000F900F90DF91CF910895CF93DF9300D089
:1008200000D0CDB7DEB79A8389837C836B8329811F
:100830003A818B819C81822B932B0F900F900F908C
:100840000F90DF91CF910895CF93DF9300D000D028
:10085000CDB7DEB79A8389837C836B838B819C8140
:100860009C012095309589819A81822393230F9052
:100870000F900F900F90DF91CF910895CF93DF935A
:1008800000D0CDB7DEB79A83898389819A8180951C
:1008900090950F900F90DF91CF910895CF93DF93B4
:1008A00000D000D0CDB7DEB79A8389837C836B8379
:1008B00029813A818B819C81822393230F900F9011
:1008C0000F900F90DF91CF910895CF93DF9300D0D9
:1008D00000D0CDB7DEB79A8389837C836B8329816F
:1008E0003A818B819C81822B932B0F900F900F90DC
:1008F0000F90DF91CF910895CF93DF9300D000D078
:10090000CDB7DEB79A8389837C836B8329813A8153
:100910008B819C81822793270F900F900F900F90CF
:10092000DF91CF910895CF93DF9300D000D0CDB762
:10093000DEB79A8389837C836B8389819A810B805C
:1009400002C0880F991F0A94E2F70F900F900F9042
:100950000F90DF91CF910895CF93DF9300D000D017
:10096000CDB7DEB79A8389837C836B8389819A8133
:100970000B8002C0969587950A94E2F70F900F902E
:100980000F900F90DF91CF9108950F931F93CF9306
:10099000DF9300D0CDB7DEB741E065E080E00E9494
:1009A000B10560E881E00E9453000E943D088CE799
:1009B00090E0FC018081882F90E06FE170E00E9460
:1009C000240483E00E9477000E94CD0680E00E940C
:1009D000E0061A82198269E070E082E090E00E94ED
:1009E0000D079A838983898108E512E020E030E0D1
:1009F000482F65E080E00E945E0660ED77E080E0D1
:100A000090E00E94EA07E7CFCF93DF9300D01F92D8
:100A1000CDB7DEB789836A834B838981882F90E0C5
:100A200081309105B9F18230910509F463C0892BB9
:100A300009F090C08B818130B1F485E290E0FC0137
:100A40008081482F8A81282F30E081E090E002C029
:100A5000880F991F2A95E2F7242F282B85E290E032
:100A6000FC01208377C085E290E0FC018081482F63
:100A70008A81282F30E081E090E002C0880F991F22
:100A80002A95E2F78095242F282385E290E0FC0147
:100A9000208360C08B818130B1F488E290E0FC015A
:100AA0008081482F8A81282F30E081E090E002C0C9
:100AB000880F991F2A95E2F7242F282B88E290E0CF
:100AC000FC01208347C088E290E0FC018081482F30
:100AD0008A81282F30E081E090E002C0880F991FC2
:100AE0002A95E2F78095242F282388E290E0FC01E4
:100AF000208330C08B818130B1F48BE290E0FC0127
:100B00008081482F8A81282F30E081E090E002C068
:100B1000880F991F2A95E2F7242F282B8BE290E06B
:100B2000FC01208316C08BE290E0FC018081482FFD
:100B30008A81282F30E081E090E002C0880F991F61
:100B40002A95E2F78095242F28238BE290E0FC0180
:100B50002083000000000F900F900F90DF91CF9145
:100B60000895CF93DF9300D01F92CDB7DEB789836E
:100B70006A834B838981882F90E081309105B9F198
:100B80008230910509F463C0892B09F090C08B81F4
:100B90008130B1F484E290E0FC018081482F8A81A9
:100BA000282F30E081E090E002C0880F991F2A953D
:100BB000E2F7242F282B84E290E0FC01208377C009
:100BC00084E290E0FC018081482F8A81282F30E068
:100BD00081E090E002C0880F991F2A95E2F7809586
:100BE000242F282384E290E0FC01208360C08B81C5
:100BF0008130B1F487E290E0FC018081482F8A8146
:100C0000282F30E081E090E002C0880F991F2A95DC
:100C1000E2F7242F282B87E290E0FC01208347C0D5
:100C200087E290E0FC018081482F8A81282F30E004
:100C300081E090E002C0880F991F2A95E2F7809525
:100C4000242F282387E290E0FC01208330C08B8191
:100C50008130B1F48AE290E0FC018081482F8A81E2
:100C6000282F30E081E090E002C0880F991F2A957C
:100C7000E2F7242F282B8AE290E0FC01208316C0A3
:100C80008AE290E0FC018081482F8A81282F30E0A1
:100C900081E090E002C0880F991F2A95E2F78095C5
:100CA000242F28238AE290E0FC012083000000002A
:100CB0000F900F900F90DF91CF9108950F931F9396
:100CC000CF93DF93CDB7DEB728970FB6F894DEBF8A
:100CD0000FBECDBF8A836B834C830D831E832F830E
:100CE000388719820DC08D819E81AF81B8859C01A6
:100CF000AD016B818A810E94900689818F5F898313
:100D000099818C81981778F3000028960FB6F89493
:100D1000DEBF0FBECDBFDF91CF911F910F91089520
:100D2000CF93DF9300D000D000D0CDB7DEB789835A
:100D30006A832B833C834D835E8341E06A81898192
:100D40000E9404058B819C81AD81BE81BC01CD01D7
:100D50000E948608DC01CB01BC01CD010E94EA079C
:100D600040E06A8189810E9404058B819C81AD816C
:100D7000BE81BC01CD010E948608DC01CB01BC0113
:100D8000CD010E94EA07000026960FB6F894DEBF58
:100D90000FBECDBFDF91CF910895CF93DF9300D0E9
:100DA000CDB7DEB79A83898389819A8190930101B7
:100DB0008093000100000F900F90DF91CF91089574
:100DC000CF93DF931F92CDB7DEB78983898180935C
:100DD000020100000F90DF91CF910895CF93DF9330
:100DE0001F92CDB7DEB780910001909101010E9462
:100DF00030078983809100019091010169810E94EF
:100E00004B07909301018093000180910001909124
:100E100001010F90DF91CF910895CF93DF9300D020
:100E200000D0CDB7DEB79A8389837C836B830E9421
:100E3000EE06AC012B813C8189819A81281B390BFC
:100E4000CA01B9010E94A1089C0189819A81820F7F
:100E5000931F0F900F900F900F90DF91CF910895F7
:100E6000CF93DF9300D0CDB7DEB79A83898380918B
:100E70000201813031F489819A8160E00E94E803A7
:100E800005C089819A816FE00E94E8030F900F905E
:100E9000DF91CF910895CF93DF9300D01F92CDB70C
:100EA000DEB79A8389836B8380910201813009F0D8
:100EB00045C089819A8161E070E00E94AC049A8308
:100EC00089838B81882F90E06FE070E00E9493040B
:100ED0009C0189819A81B9010E9465049A83898362
:100EE0008B81882F90E06DE070E00E9493049C015C
:100EF00089819A81B9010E947C049A8389838B81BC
:100F0000882F90E06CE070E00E9493049C0189813E
:100F10009A81B9010E947C049A8389838B81882FEE
:100F200090E06AE070E00E9493049C0189819A81BC
:100F3000B9010E947C049A83898344C089819A8183
:100F400061E070E00E9493049A8389838B81882FEB
:100F500090E060E070E00E9493049C0189819A8196
:100F6000B9010E9465049A8389838B81882F90E060
:100F700062E070E00E9493049C0189819A81B9012A
:100F80000E947C049A8389838B81882F90E063E0A0
:100F900070E00E9493049C0189819A81B9010E94AA
:100FA0007C049A8389838B81882F90E065E070E0D0
:100FB0000E9493049C0189819A81B9010E947C045A
:100FC0009A83898389819A810F900F900F90DF9186
:100FD000CF910895EF92FF920F931F93CF93DF93DA
:100FE000CDB7DEB728970FB6F894DEBF0FBECDBFE2
:100FF0006D837E838F839887809104019091050192
:10100000A0910601B091070189839A83AB83BC83C9
:10101000000020910401309105014091060150919A
:10102000070189819A81AB81BC8179018A01E81A23
:10103000F90A0A0B1B0BD801C7012D813E814F8194
:10104000588582179307A407B50718F38091040108
:1010500090910501A0910601B0910701BC01CD015D
:1010600028960FB6F894DEBF0FBECDBFDF91CF91AB
:101070001F910F91FF90EF900895CF93DF93CDB71D
:10108000DEB784E490E022E0FC01208385E490E078
:1010900023E0FC01208387E490E029EFFC0120831A
:1010A0008EE690E022E0FC01208378940000DF913E
:1010B000CF9108951F920F920FB60F9211248F9324
:1010C0009F93AF93BF93CF93DF93CDB7DEB780915C
:1010D000040190910501A0910601B09107010196CC
:1010E000A11DB11D8093040190930501A0930601F9
:1010F000B09307010000DF91CF91BF91AF919F9115
:101100008F910F900FBE0F901F901895CF93DF9384
:1011100000D000D0CDB7DEB769837A838B839C8300
:1011200089819A81AB81BC81B695A7959795879562
:10113000BC01CD010F900F900F900F90DF91CF91D8
:101140000895AA1BBB1B51E107C0AA1FBB1FA6170E
:10115000B70710F0A61BB70B881F991F5A95A9F760
:1011600080959095BC01CD010895EE0FFF1F05906D
:0A117000F491E02D0994F894FFCFEC
:04117A000000010070
:00000001FF
